:020000041000EA
:1000000000B5324B212058609868022188439860DF
:10001000D860186158612E4B002199600221596106
:100020000121F02299502B49196001219960352056
:1000300000F044F80222904214D00621196600F024
:1000400034F8196E01211966002018661A6600F04E
:100050002CF8196E196E196E052000F02FF8012189
:100060000842F9D1002199601B49196000215960AB
:100070001A491B48016001219960EB211966A021F2
:10008000196600F012F800219960164914480160C1
:100090000121996001BC002800D000471248134993
:1000A000086003C880F30888084703B5996A0420EC
:1000B0000142FBD001200142F8D103BD02B5186610
:1000C0001866FFF7F2FF186E186E02BD00000240BE
:1000D000000000180000070000035F00212200005C
:1000E000F4000018222000A00001001008ED00E03C
:1000F00000000000000000000000000074B24E7A12
:1001000000200420F7010010C3010010C5010010F9
:10011000C1010010C1010010C1010010C101001097
:10012000C1010010C1010010C1010010C701001081
:10013000C1010010C1010010C9010010CB01001065
:10014000CD010010CD010010CD010010CD01001037
:10015000CD010010CD010010CD010010CD01001027
:10016000CD010010CD010010CD010010CD01001017
:10017000CD010010CD010010CD010010CD01001007
:10018000CD010010CD010010CD010010CD010010F7
:10019000CD010010CD010010CD010010CD010010E7
:1001A000CD010010CD010010CD010010CD010010D7
:1001B000CD010010CD010010CD010010CD010010C7
:1001C00000BE00BE00BE00BE00BE00BEEFF3058054
:1001D000103800BEF2EB88714C200010682000102F
:1001E0003402001090A31AE700201F49086006C8D7
:1001F00081F3088810471D48006800282FD10DA4FE
:100200000ECC002902D000F012F8F9E71849194A7B
:10021000002000E001C19142FCD1174988471749ED
:1002200088471749884700BEFDE701C901C29A42C5
:10023000FBD3704768200010C0000020900300200E
:100240003823001000000420000004203823001090
:10025000001004200010042000000000704709482E
:1002600001F0ACFB0047000008ED00E0000000D00A
:1002700090030020640800203518001005030010CA
:10028000291900105756000006005250ABB36053B6
:10029000FC1F001006005250861C03020C200010A8
:1002A000060052505422A29D182000100500525002
:1002B000DE65F46838230010F8B5C04610B5064C6A
:1002C0002378002B07D1054B002B02D0044800E017
:1002D00000BF0123237010BD900600200000000025
:1002E000A01F0010044B10B5002B03D00349044895
:1002F00000E000BF10BDC0460000000094060020D2
:10030000A01F001070B5D024802519202406AD044C
:1003100000F00AF86562FA20656100F031FDFA200C
:10032000A56100F02DFDF6E70123D02283401206DF
:1003300093629361094A830094464022634419689A
:10034000C0004A40C021114080225201134319606D
:10035000034B9C46052360444360704704C0014042
:1003600000400140024B18688007C00F7047C0462C
:1003700000C0064070B5EFF3108C72B60D4D2B68BF
:10038000002BFCD0BFF35F8F0724CB08C618C05CDE
:1003900001230C40A3401C000440034207D1034347
:1003A0003370BFF35F8F2C608CF3108870BD10002A
:1003B00001F0BEFA2C0100D00021044B044ABFF327
:1003C0005F8F02C39342FAD17047C046000100D04C
:1003D000800100D0044A1078431CDBB2172B00D9EF
:1003E000102313707047C046D802002001238340B9
:1003F000002904D0034A1360034A13607047034A7C
:100400001360FBE780E200E000E100E080E100E053
:10041000024B10309B688000C058704700ED00E030
:1004200070B50D00EFF3108672B60F4A1368002BFB
:10043000FCD0BFF35F8F0D4B10309B6884001B59BD
:100440000B4A934203D09D4201D001F089FA074B39
:100450009B681D51BFF35F8FBFF35F8F0022024B7C
:100460001A6086F3108870BD240100D000ED00E012
:10047000CD010010F0B5DE4657464E464546E0B584
:100480000C0083B0EFF3108972B6584A1368002B42
:10049000FCD0BFF35F8F564B9A68030010339F0068
:1004A000D559544A9046954232D0A54243D0524E37
:1004B000AA1B2F2A2CD801228240924651464F4A2D
:1004C00012681140019151464D4A1160BFF35F8F90
:1004D000EFF305829346002A33D101232A009A4381
:1004E00093689C4208D177E04B005B189B00F3189F
:1004F0009968A1422AD01A00062151560029F3DA40
:10050000019B002B19D052463E4B1A603B4B1A60A0
:10051000374B9B68DD51BFF35F8FBFF35F8F0022C6
:10052000324B1A6089F3108803B0F0BCBB46B24668
:10053000A946A046F0BD1500EAE75246304B1A60C6
:10054000E6E79342C9D001F00BFAC6E706215956F7
:10055000002921DB4A005018800034188046A0682A
:100560009860E079D871062020569871002824DB25
:10057000A488F01A6405241544440019E0240005F9
:10058000400D24022043988052181F4B9200B61849
:100590001A781970B271B3E7594600290FD1FF31AB
:1005A00091711A49918018490A789A71184A9B1BCF
:1005B0005B415A43120D0A70A2E71648E3E7164A58
:1005C0001649D21A083A5002400D01439980144945
:1005D00052080A43DA8093E7062151561300002996
:1005E000B8DA5A46002AEAD14546DCE7240100D0B1
:1005F00000ED00E0CD010010DC02002000E100E091
:1006000080E100E080E200E06208002001BDFFFF21
:10061000AAAA000001BD00001603002000F0FFFFA1
:1006200000F8FFFF70B5EFF3058101240443EFF3F9
:10063000108C72B6214A1368002BFCD0BFF35F8F79
:100640001F4B05001F4AED1A6D416A43120D1E4DE6
:100650008900AE6852B27658A6421CD0062159567F
:1006600091421CD012215956914222D01E21595636
:10067000914220D02A2159560324914210D0134B85
:1006800019781A708171BFF35F8F00220B4B1A60CB
:100690008CF3108870BDAB680D4C5C50EFE7002404
:1006A0006100091989005B18FF2199710949998036
:1006B000E5E70124F4E70224F2E7C046240100D074
:1006C000DC020020AAAA000000ED00E06208002081
:1006D000CD01001001BDFFFF054B064A1360064A1D
:1006E000136053609360D3601361536193617047EB
:1006F0008080808000E400E004E400E0024B9C463F
:1007000061448900016070474000003410B5040066
:10071000FFF760FE01002000FFF7F0FFFF232371C9
:10072000BFF35F8F10BDC04610B50400FFF752FE47
:1007300001002000FFF7E2FFFF23A380BFF35F8FDC
:1007400010BDC04683680B4810B5844661446244BE
:10075000090112019A18591854684B6801209C42EB
:1007600001D802D00020C0B210BD12680B689A42B6
:10077000F9D8F7E7FFFFFF0F0A4B1968EFF3108076
:1007800072B60A68002AFCD0BFF35F8F1B68BFF304
:100790005F8F00221A6080F3108840BF0020002184
:1007A0007047C0464C080020F8B557464E464546AF
:1007B000DE46E0B599460CAB1C780DAB1B78060005
:1007C00090469A460768002C11D1BC7B002C42D081
:1007D00065003B682D19033D59194B78BB73002BFD
:1007E00000D1FB7300238B704B700B7004E065002D
:1007F0003B682D19033D5919B2682A4B944642466D
:10080000E3181B0163441A604A465A600A9A9A60C8
:100810000B9ADA6000238B704B700B707B7B9B46CE
:10082000002B2BD022005946B8687B6898473A685D
:10083000002816D05B4658465B005B445519033BC5
:10084000A870D118D35C002B00D06B705B460C7085
:100850007B73A34513D0F0BCBB46B246A946A04665
:10086000F8BD5B465B005B44033BD3189C70511999
:10087000525D002A00D05A705B460B707C73424672
:100880004B46307D00F09CFB051E06D05346002BE6
:1008900003D12100306800F0BDFD0E9B002BDAD0A3
:1008A0001D70D8E7FFFFFF0FF0B5DE4657464E46F6
:1008B00045460023E0B58BB00893664B8200D458C0
:1008C00000239B46099000F01BFB626806000F00A6
:1008D000EFF3108572B61368002BFCD0BFF35F8F67
:1008E00023689C465B7B9946002B68D0A2685A4BD4
:1008F00090464B441B01984443461A685B681000BD
:100900001900801BB941002963DD099800F058FBEC
:1009100000230022984600230692079300239A465C
:100920006368BFF35F8F5A461A6085F31088534699
:10093000002B08D10028C6D10BB0F0BCBB46B24694
:10094000A946A046F0BD089B414618024B461843F5
:10095000D047626806000F00EFF3108572B6136887
:10096000002BFCD0BFF35F8F002F4FDB33003B43E6
:1009700002D02369002B60D12368D97B002907D0DE
:100980004A00521819688C4649466244033A51702D
:100990009A7B002A01D14A469A734A46DA734B463B
:1009A000E168013BCA5C0132CA545B46236163685B
:1009B000BFF35F8F5A461A6085F3108883E70023E0
:1009C00000229846002306920793002300209A46AF
:1009D000A6E7002901D1002897D10021604600F048
:1009E00097FC43461A685B680692079343469B68E8
:1009F0009A464346DB689846E3684B44013B1B78C4
:100A000008931B0203432361002089E72369002B1D
:100A1000B2D0069A079B921BBB41002B15DB5946AF
:100A200004910121039149460291414601915146A9
:100A300020000091FFF7B8FEB7E700F061FA32003E
:100A40003B0012184B41002BE9DA0122034B5242C2
:100A5000E5E7C04630080020FFFFFF0FFFFFFF7FE4
:100A600010B5144C6368002B04D00A211248FFF71C
:100A700045FE10BD2300114A1021206800F062FBE2
:100A8000032000F031FA032000F00AFB03200C4998
:100A900000F050FAFFF79EFC0A4B9C460323237597
:100AA000D0231B061B6860446375074B80006060A1
:100AB000DC60DAE7240300204C0800204507001022
:100AC000A90800104000003430080020F0B5574657
:100AD0004E464546DE46E0B585B0019310AB1B7827
:100AE0000600039300239A46984600927268EFF33B
:100AF000108972B61368002BFCD0BFF35F8F356886
:100B0000AC7B002C49D067002B683F19033FDB19F1
:100B10005A78AA73002A00D1EA73B168484A8C4611
:100B200000980199A21812016244106051600E9958
:100B300091600F99D16042469A705A701A706B7B1F
:100B40009B46002B45D022001900A8686B68984787
:100B50002A68002830D05B4658465B005B44D719B2
:100B6000033BB870D118D35C002B00D07B705B4680
:100B70000C706B735C452DD0F3681B19013B187822
:100B80007368BFF35F8F42461A6089F3108853463B
:100B9000002B2CD10002204307E07368BFF35F8F66
:100BA0001C6089F310880120404205B0F0BCBB46B0
:100BB000B246A946A046F0BD5B465B005B44033BE2
:100BC000D3189C70D119D25D002A00D05A705B46B0
:100BD0000B706C73307D009A019B00F0F1F9824636
:100BE0000028C9D02100306800F014FCC4E7039B42
:100BF000002B23D00E9B00200F9998470300040080
:100C00000D000B431AD000290ADA009A019B121B2F
:100C1000AB4100920193002B0ADB039B9A4665E7E8
:100C200000F06EF924184D4100940195002DF4DA7E
:100C30000123044C5B4200930194EEE70020B4E7EB
:100C4000FFFFFF0FFFFFFF7F70B542680400EFF367
:100C5000108572B61368002BFCD0BFF35F8F20683D
:100C6000CEB2437BB3420AD0FF230B405A00D318C5
:100C7000026894466344033B9B78002B13D0E268E0
:100C8000FF2394460B406344013B0A0A1978D2B211
:100C900091420ED000206368BFF35F8F00221A607C
:100CA00085F3108870BD22698A42F3D10020236148
:100CB000F1E7310000F0AEFBEDE7C046F0B504000F
:100CC0000D0006267642F717C64636196F4100B565
:100CD00084B08F4214D811D000F012F932003B00DA
:100CE000121A8B41002B15DC002B3ED0200029006E
:100CF00000F010F904B080BCB846F0BD8642EBD9D4
:100D00000026002700F0FCF832003B00121A8B414D
:100D1000002BE9DD002302930193154B3200009371
:100D200014483B00FFF7D2FE0028DFDB0023984683
:100D3000BC46114A114F7B6A9C4504D8B96A8E4261
:100D4000D4D99C45D2D11168EFF3108072B60B68EC
:100D5000002BFCD0BFF35F8F1368BFF35F8F41465A
:100D6000196080F3108820BFE5E7002ABED0D1E7E4
:100D700079070010240300204C08002000400540A3
:100D800070B5060000F0BCF8FA2204000D00002344
:100D900030000021920000F0C9FE001969410029CD
:100DA00002DBFFF78BFF70BD012001494042F8E7ED
:100DB000FFFFFF7F70B5EFF3058305000C0084B0E3
:100DC000002B0AD0164A0020536A9C4203D8926A2C
:100DD0000130AA421FD304B070BD124E029301939A
:100DE000114B0200009330000B00FFF76FFE011E55
:100DF000E8DD20BF3000FFF727FF094B0020596ACC
:100E00008C42E8D89B6A0130AB42E4D2641A631E7C
:100E10009C41E0B2DFE7E41A631E9C41E0B2DAE7EE
:100E2000004005402403002079070010F0B5EFF3DF
:100E30000582D6464F4646461000C0B51038EFF33F
:100E4000108872B6214C2368002BFCD0BFF35F8F53
:100E50000123190081401E4D1F006963AA461D4DE4
:100E600029601D4D2E78AC463500C5402F402B42E1
:100E700009D1BFF35F8F276088F31088E0BCBA46C2
:100E8000B146A846F0BD5346144D5F6A83005D59D4
:100E9000AF420ED3124A8E439B5862461670BFF380
:100EA0005F8F0022226088F31088002BE6D09847DD
:100EB000E4E70C4B92009C46624413681360BFF356
:100EC0005F8F0023236088F31088D7E7280100D0C4
:100ED000004005403C700540630800205008002099
:100EE000AC060020D03F054010B50100024A03487F
:100EF000FFF740FA10BDC046A01F00106108002097
:100F0000034B596A0A00986A596A8A42FAD17047B3
:100F100000400540064A536A9942FCD807D1044B69
:100F200002E05A6A914202D19A6A8242F9D370472A
:100F30000040054070B504000D00EFF3108672B656
:100F40001A4A1368002BFCD0BFF35F8F002D1BD013
:100F50002000FFF75DFA164981420AD02000FFF712
:100F60005FFA01212000FFF741FA0123A340114A53
:100F70001360114BA400E550BFF35F8F00220B4BB1
:100F80001A6086F3108870BD0B4BA200D550012269
:100F9000A2400A4920000B7893430B700449FFF7E5
:100FA00069FA00212000FFF721FAE5E7280100D0C7
:100FB0002D0E001038600540AC06002063080020AC
:100FC000F0B54F46D6464646C0B507002F4C616A7D
:100FD0000D00A66A616AA942FAD18B4208D805D0F1
:100FE0000120E0BCBA46B146A846F0BDB242F7D9EE
:100FF000EFF3108A72B6264801680029FCD0BFF3CF
:101000005F8F0125BD402349204C884609788946D9
:101010002943C9B28C46414660460870391D1E48B6
:10102000890065630A51B9000B50216A00202942EA
:1010300019D0616A0800A66A616A8142FAD18B42BE
:1010400019D801D1B24216D8CC451DD00F4B1F2064
:101050001D625D6301230740BB40104A1E381360C8
:1010600043464A461A70BFF35F8F0022084B1A604E
:101070008AF31088B5E70020BFF35F8F0022044B8E
:101080001A608AF31088ACE70120ECE700400540C5
:10109000280100D0630800205008002080E200E012
:1010A000EFF3108C72B60A490B68002BFCD0BFF32B
:1010B0005F8F01238340074A0748136202789A43EF
:1010C0000270BFF35F8F00230B608CF310887047B2
:1010D000280100D0004005406308002070B50500DD
:1010E00014001600002915D00C00002A12D08068C8
:1010F0006B689847296800280ED073009B1962001E
:10110000033B1219CB18033A9C7088188A5C002A9A
:1011100015D10670200070BD63001B197200033BDF
:101120009219CB18033A9E7088188A5C002A02D163
:1011300004703400EEE75A7004703400EAE75A7025
:101140000670E7E730B583600023CCB24373013308
:10115000047342608373C4730D000068012C06D9C8
:10116000421C0133DBB2137003329C42F9D1FF21E0
:1011700029404B005918002340180338437030BDF4
:10118000F8B5CE46474606000C0080B5002907D0CA
:101190004D0003686D18033D5A195778002F04D18C
:1011A0002000C0BCB946B046F8BD7900C919033962
:1011B00088464344597889460021597051707368B4
:1011C0003A002100806898473368002814D04246CE
:1011D0009A18947059195B5D002B00D053700F70F2
:1011E000270049463000FFF7CBFF390002003000EE
:1011F000FFF774FF0400D3E7424641465D19AF7024
:101200009A185B5C002B00D06B701470E9E7C04645
:10121000F0B557464546DE464E46E0B50D006B003C
:1012200001685B19DF1E0400C85D83B00192CA1912
:10123000002850D043001B18033BCB185E78B446FF
:10124000002E1AD1019E002E42D0E67B002E04D043
:1012500073009B19CB18033B5D70A37B002B00D15F
:10126000A573E57300282FD10023537003B0F0BCA1
:10127000BB46B246A946A046F0BD72006244033A9E
:1012800089184A78904600224A7091465A700100A7
:1012900032002000FFF722FF43468246002B07D092
:1012A0005B0021684344033BCB185A78002A16D1CF
:1012B000424651462000FFF711FF2168019BCA19E1
:1012C000002BC2D10028CFD043001B18033BCB1802
:1012D00000219970C8E7019B002BB6D1C4E75000EC
:1012E0008018033809184878834648464870587073
:1012F00041462000FFF7F2FE594680462000FFF7E6
:101300003FFF414602002000FFF7E8FE8046CFE79E
:10131000F0B557464546DE464E46E0B583B00191EE
:10132000457B04006B0000685B19DF1EC15DC219BC
:10133000002952D04B005B18033BC3185E78B446BB
:10134000002E1CD1019E002E44D0E67B002E04D03E
:1013500073009B19C318033B5D70A37B002B00D166
:10136000A573E573002931D1002328005370617300
:1013700003B0F0BCBB46B246A946A046F0BD720021
:101380006244033A801842789046002242709146A7
:101390005A7020003200FFF7A1FE43468246002B20
:1013A00007D05B0021684344033BCB185A78002ADE
:1013B00017D1424651462000FFF790FE019B0100E5
:1013C0002068C219002BC0D10029CDD04B005B187A
:1013D000033BC31800209870C6E7019B002BB4D1D3
:1013E000C2E75000801803380918487883464846F9
:1013F0004870587041462000FFF770FE59468046FD
:101400002000FFF7BDFE414602002000FFF766FE08
:101410008046CEE770B5040000292CD0437B8B4278
:101420002ED0056848004018033828188278002A12
:1014300021D053009B18033BEA5CEE188A4202D18C
:101440001BE0002A08D053009B18033BEB185A7886
:101450008A42F6D142785A70002301228370437089
:101460002000FFF7D5FE617B02002000FFF736FE6B
:101470006073012000E0002070BD43783370EBE71B
:1014800001221900FFF7C4FE60730120F4E7C04693
:1014900030B50C2083B000F0B1F9FEF763FF0028EF
:1014A0000ED0944B944A1A605A609A60DA601A61BE
:1014B0005A619A61DA611A62904A5A6203B030BD89
:1014C0008F4CA06700F0A2F901228E4B1A60636C6A
:1014D000012BFCD103228C4B1A60894A936B012BA0
:1014E000FCD101330121894A89480093043300F07B
:1014F0002DF90523874A00930121874800F026F93A
:10150000864B5A68FF2A02D8802252005A608022F5
:10151000784C7D4B21691201804D1A60002905D05D
:10152000606900F07DFA01300138FDD1E0217B4B8C
:1015300002201A681140802252012A431160196862
:10154000484003210140116004219A681142FCD0F7
:101550008022802192012A430901116080225200D9
:101560005A606F4B23616F4B5968FF2900D85A604E
:101570000321644A6B4B116002399A681142FCD016
:10158000E0201A681040802252011A431060186847
:101590004840032101400220116062498A681042DC
:1015A000FCD0802292011343802212011A60802213
:1015B0005D4B52004A6063615C4B5968FF2900D85B
:1015C0005A6080225A4BE1691201584D1A60002975
:1015D00005D0606900F024FA01300138FDD1E02225
:1015E00052490B681A4080235B012B431A60802309
:1015F00080229B012B4312011A6080223E4B520035
:101600004A60E3614B4B5968FF2900D85A60802239
:10161000494B216A1201474D1A60002905D06069C3
:1016200000F0FEF901300138FDD1E02241490B689C
:101630001A4080235B012B431A60802380229B0188
:101640002B4312011A60802380225B004B602A4BDF
:10165000D2022362394B5968914200D25A608022EB
:10166000374B616A1201354D1A60002905D0606957
:1016700000F0D6F901300138FDD1E0222F490B6886
:101680001A4080235B012B431A60802380229B0138
:101690002B4312011A608023DB024B60174B6362FD
:1016A000284B5A68FF2A02D8802252005A608022B2
:1016B000254BA1691201234D1A60002905D06069EC
:1016C00000F0AEF901300138FDD1E0221D490B6870
:1016D0001A4080235B012B431A60802380229B01E8
:1016E0002B4312011A6080235B004B600E4BA361F9
:1016F000E4E6C046BC070020006CDC021BB700001B
:10170000008000403CB0004030B00040002F6859DD
:1017100000800240008C864700C0024030800040BC
:10172000001BB7003C8000404059730754800040C4
:1017300054B000406080004060B000406C800040C9
:101740006CB000404880004048B00040F0B5C6464C
:10175000040000B50C2090461F000E0000F060F958
:101760004101091A8D01691AC90009188901404609
:1017700000F056F9069B3F041A0323681743002B19
:1017800022DB1A4B1A4DE21853425A4180235B0167
:101790009C461203174B62441A60174B1A601100E3
:1017A000AB689943FBD1C022231D92011A43212328
:1017B0002660A06013602368002BFCDA0823E76032
:1017C000136080BCB846F0BD3F2322681340B3428B
:1017D000D7D1A3681B051B0D8342D2D1EE22E3684B
:1017E000D2021340BB42CCD1EBE7C0460040FDBF64
:1017F00000C0004000E0004000F000408023024AAA
:101800009B000343D362704700800540AA23064A29
:101810001B0113602F230549D360054B19605368E2
:10182000002BFCDA7047C0460040024000B0FA00CE
:10183000006002402C4B2D4A70B51A602C4A2D4B8B
:101840002D491A6014008B689C43FBD12B4D2C4E04
:10185000B54208D2013E761BB60808CD9847230052
:101860000134B342F9D1FFF713FE264A214B1A6027
:10187000214A9368DB43DB01DD09002BF9D14022CB
:10188000214B224C224E9A675A671A67DA66B44295
:1018900008D223682000002B20D00834FEF744FF34
:1018A000B442F6D31B4E1C4CC022A168300000F09D
:1018B000ADF9A660FEF780FDFEF70EFFFFF7D0F84A
:1018C000164C174EB44208D2013E361BB60808CC5F
:1018D00098472B0001359E42F9D170BD0834FEF7C0
:1018E00015FFB442D5D3DDE700E00040BFCDFBFEDD
:1018F000FE7F3C0000F0004000C000407803002064
:1019000088030020FFFFFF0100F00140700300206A
:10191000780300200000002000ED00E08803002094
:101920009003002000BEFDE710B5FFF7FBFFC046A7
:101930000FB400B5084883B000F09AFA049B002B5E
:1019400007D005A91800019100F018F8034800F02D
:101950008FFA0120FFF7E6FFC41F0010D41F00100C
:1019600010B50148FFF7E4FFD81F001010B500289C
:1019700000D110BD00F030FAFBE7C04610B5094AAF
:101980000300146884B0002C08D00122009106489E
:10199000524203A9A047012004B010BD00F068FA2C
:1019A0000020F9E72C0800206D19001001480421DF
:1019B000014B184750030020DD190010142310B507
:1019C0000100188804331B88984710BD162310B5F2
:1019D0000100188802331B88984710BDF8B54746A8
:1019E000CE4680B50F1E19D0142399460433040047
:1019F0000025012698464B461888434621681B88D7
:101A0000984701C4431E9841013540420640AF4209
:101A1000F1D13000C0BCB946B046F8BD0126F8E7A8
:101A2000114A936F9B0813D210665166002905D0A6
:101A3000FFE7FFE7FFE7516F106F704704B500281D
:101A400001D00020C04300F09BFA002104BDC04635
:101A5000F0B5146E556E576F166FFFF7E5FF1466FD
:101A6000556657671667F0BD000000D0132370B5A8
:101A70001D78012D15D010DD1C48FFF7A7FF1C4C69
:101A800001008022200000F0C1F8022D06D0194884
:101A9000FFF794FF184B186070BD154C174BA364EB
:101AA000F5E7164B124C23606360A360E36023618B
:101AB0006361A361E36123626362A362E362236300
:101AC0006363A363E36323646364A364E3642365E0
:101AD0006365A365E36523666366A366E3662367C0
:101AE0006367A367E367A364D1E7C046534400007C
:101AF000900400204C33000048080020011B001017
:101B000007B5604601880A0A0230DF2AFAD1C9B255
:101B1000820804D3028840880004104300E0006873
:101B2000014A5050039007BD9004002051434343A5
:101B3000C9188C46110C83B24B4310B4040C61439A
:101B400092B280B2504362431C041B0C001910BCBB
:101B500059411304120CC0185141614470470000F0
:101B6000132310B512481C78FFF730FF0100012C39
:101B70000AD003DD80220F4800F048F80E48FFF736
:101B80001DFF0E4B186010BD0A4C5422200000F0BF
:101B90003DF80B4B6365A365E36523666366A36647
:101BA000E36623676367A367E3672362E361E5E7AF
:101BB00053460000900500204C33000048080020E8
:101BC000C51B001007B5604601880A0A0230DF2AEB
:101BD000FAD1C9B2820804D30288408800041043B5
:101BE00000E00068014A5050039007BD90050020B6
:101BF00001480421014B184760030020DD19001043
:101C0000014B1B681847000060030020014B5B6814
:101C10001847000060030020030010B50800110001
:101C20001B68984710BDC046F0B546464F46D6469D
:101C3000C0B5437D80460E001700002B46D0002A19
:101C40003FDD4B1E9946244B0125002400209A4677
:101C50000DE04B461B5D0D3B5A425341325DDBB2FA
:101C60000A2A0BD02B00013401359F421ADD002CCB
:101C7000EFD14346325D1B7D0A2AF3D1002BF1D10F
:101C8000A04204DA4346211A1B683018984743469D
:101C900050461B6802219847013428002B0001356B
:101CA0009F42E4DC874204DD4346391A1B68301842
:101CB0009847F619013E33780D3B5A42534142464C
:101CC0001375E0BCBA46B146A846F0BD03681100E2
:101CD00030009847F5E7C04648200010F0B5DE46D2
:101CE00057464E464546E0B585B017001C00060035
:101CF0000D00FFF705F90023304A12184B41002B65
:101D000058DB2F4908008A4600F042F901906B1C0D
:101D100003D1300000F0F2F80500002C25D1294B4A
:101D20009846294B1C68002C15D0002F20D1274F36
:101D300002E02469002C0ED02368002BF9D03B6808
:101D4000002B01D0A342F4D120002A003100C0476B
:101D50002469002CF0D1019B002B27D105B0F0BCE9
:101D6000BB46B246A946A046F0BD194B9846D8E7F7
:101D7000164B994602ABDF1D0A239B4602E02469FD
:101D8000002CE8D02368002BF9D04B461B68002BB1
:101D900001D0A342F3D12A0031002000C0475B46A6
:101DA0000122390020003B70C047E8E7504600F0B0
:101DB000DFF8D3E70122074B5242A2E740420F006F
:101DC00070030020291C001024080020280800208F
:101DD000191C0010FFFFFF7FF0B5CE46474680B5C7
:101DE00083B06B460600DD1D2870FFF789F80023DD
:101DF0001A4A12184B41002B2BDB19490800884660
:101E000000F0C6F8174B81461C68002C14D0164F02
:101E100002E02469002C0FD02368002BF9D03B6826
:101E2000002B01D0A342F4D1200001222900FFF7AA
:101E3000FBFE2469002CEFD14B46002B05D130006E
:101E400003B0C0BCB946B046F0BD404600F090F8C3
:101E5000F5E70122054B5242CFE7C04640420F0052
:101E6000700300202408002028080020FFFFFF7FC7
:101E700070B5040000F042F80023010005000122C3
:101E80002000FFF72BFF084B1C68002C06D063686E
:101E9000002B05D098472469002CF8D1280070BD8C
:101EA0002469002CF3D1F9E72408002010B502487A
:101EB00000F004F810BDC0464008002030B50025F1
:101EC00089B004000922002101A80095FFF798FEBF
:101ED0000922002105A80495FFF792FE4B236A46CC
:101EE0006846137004A90D2200F03AF81521082263
:101EF00020006944FFF78AFE09B030BD10B58307A2
:101F00000AD00300032102E001330B4205D01A7806
:101F1000002AF9D1181A10BD030019680C4A0D4C9B
:101F20008A188A4322420FD15968094A04338A1811
:101F30008A43224208D15968054A04338A188A43E1
:101F40002242F1D000E001331A78002AFBD1E1E708
:101F5000FFFEFEFE80808080F8B5C04600000000D5
:101F600001B40248844601BC604700BFFD01002067
:101F700001B40248844601BC604700BF5D010020F7
:101F800001B40248844601BC604700BFC102002082
:101F900001B40248844601BC604700BFC100002074
:101FA000486172647761726520616C61726D202591
:101FB0006420616C726561647920636C61696D6530
:101FC000640000000A2A2A2A2050414E4943202A50
:101FD0002A2A0A000A0000004861726420617373B3
:101FE0006572740052656C6561736500626F6F7431
:101FF000325F77323571303830000000312E352EA7
:10200000300000007069636F000000005049434FCA
:102010005F484F535400000044656320323620323D
:102020003032330006005250BBFF3CB60420001093
:1020300006005250E182887FEC1F001006005250CB
:0C204000D3F07542E41F00100D0A0000F0
:10204C00AC020010A002001094020010242000101A
:0C205C0088020010302000103C20001012
:10206800F0B5C646150000B504001E000268EFF37F
:10207800108172B61368002BFCD0BFF35F8F042366
:10208800E356002B2DDB2268BFF35F8F0020106022
:1020980081F31088D0221206127852B290469A42E2
:1020A80003D1002080BCB846F0BD00270BE02368B0
:1020B800BFF35F8F1F6081F310882800310000F0A4
:1020C800D3F80028EDD12268EFF3108172B61368B7
:1020D800002BFCD0BFF35F8F23797F2BE7D94346D2
:1020E80002E0D0231B061B6823712368BFF35F8FB0
:1020F80000221A6081F310880120D3E70268EFF309
:10210800108172B61368002BFCD0BFF35F8FFF23DA
:1021180003710368BFF35F8F00221A6081F3108890
:1021280040BF7047084810B50378002B0AD18023B8
:102138000649074A5B051C68CC5004339342FAD120
:102148000123037010BDC04660080020BC060010C3
:102158000001001010B5024B0133984710BDC0466E
:10216800BC060020034B1A68C0239B009343024A15
:10217800136070470C8001400C900140054B1A68B1
:1021880080239B005340C02292001340024A1360F0
:102198007047C0460C8001400C9001401423F0B5F4
:1021A800D6464F4646469A46814618880433C0B5F7
:1021B80098460E001B882749140098475346070085
:1021C8001888434624491B889847534605001888B1
:1021D800434622491B8898478046FFF7A3FFB84724
:1021E800A847FFF7CBFF002C1BD0C02122000827EF
:1021F800022049053D008B6A1D4018420BD0002C77
:1022080009D0131B0D2B1FD84B461B78013C0B66BE
:1022180001239C46E1442300002D0CD11343002BDD
:10222800E8D1FFF79FFFC047FFF794FFE0BCBA462D
:10223800B146A846F0BD002AF1D00B6E013A3370C2
:10224800130001362343EAE7002DD3D0002AD1D06A
:10225800F3E7C046494600004558000046430000E1
:102268007047C0460000000001B40248844601BC23
:10227800604700BFB50D001010000000000000000E
:102288000000010000000000000000000000020043
:102298000000000000000000000003000000000033
:1022A800000000000000FF000000000001B54868C1
:1022B80001318E460047704609380149884701BDFB
:1022C800250600103C0300200000000090030020B9
:1022D800E40700200000000000000000F4070020D0
:1022E80000000000000000001000000000000000D6
:1022F800503300004C3300005433000052330000C8
:102308004D5300004D430000533400004334000097
:102318000000000000000000F11B0010AD190010C3
:102328006D1A0010611B0010E5020010AD1E0010B0
:04000005100001E9FD
:00000001FF
